:100000000C9484010C94AC010C94AC010C94AC01E4
:100010000C94AC010C94AC010C94AC010C94AC01AC
:100020000C94AC010C94AC010C94AC010C94AC019C
:100030000C94AC010C94AC010C94AC010C94AC018C
:100040000C94B20B0C94AC010C94640D0C94960DB2
:100050000C94AC010C94AC010C94AC010C94AC016C
:100060000C941F080C94AC01E409FC09FC09FA0982
:10007000FC09E209FC09FC09FC09D509FC09FC0999
:10008000EC09F809F609FC09FC09FC09F4095254C9
:1000900043206973204E4F542072756E6E696E67EF
:1000A000210000000000000000000004040404041B
:1000B00000040009091200000000000A0A1F0A1FBC
:1000C0000A0A00040F140E051E0400191902040880
:1000D000131300040A0A0A15120D00040408000094
:1000E00000000002040808080402000804020202DA
:1000F00004080004150E1F0E1504000004041F045C
:1001000004000000000000040408000000001F00BC
:1001100000000000000000000C0C000101020408B7
:100120001010000E11131519110E00040C04040414
:10013000040E000E11010204081F000E1101060139
:10014000110E0002060A121F0202001F101E0101FA
:10015000110E000608101E11110E001F01020408E6
:100160000808000E11110E11110E000E11110F01D1
:10017000020C00000C0C000C0C0000000C0C000C1D
:10018000040800020408100804020000001F001FF9
:1001900000000008040201020408000E110102041C
:1001A0000004000E11171517100F00040A11111F7B
:1001B0001111001E11111E11111E000E1110101030
:1001C000110E001E09090909091E001F10101C103C
:1001D000101F001F10101F101010000E1110101310
:1001E000110F001111111F111111000E040404044C
:1001F000040E001F02020202120C00111214181445
:100200001211001010101010101F00111B151111E9
:1002100011110011111915131111000E11111111E5
:10022000110E001E11111E101010000E11111115CB
:10023000120D001E11111E141211000E11100E01CC
:10024000110E001F04040404040400111111111103
:10025000110E0011111111110A04001111111515BF
:100260001B110011110A040A11110011110A0404D2
:100270000404001F01020408101F000E08080808EB
:10028000080E0010100804020101000E0202020212
:10029000020E00040A11000000000000000000002F
:1002A000001F1F1C1F1E1F1E1F1F1E1F1E1F0000C2
:1002B0000008000201000003040700000000000025
:1002C00000000102040810204080010204081020F0
:1002D00001020408102004040404040404040202BB
:1002E00002020202030303030303000000002500CF
:1002F00028002B0000000000240027002A005906D7
:100300003D07770AC60D660611241FBECFEFD8E061
:10031000DEBFCDBF11E0A0E0B1E0E0E3F8E202C053
:1003200005900D92AC3AB107D9F723E0ACEAB1E001
:1003300001C01D92A635B207E1F712E0C6E0D3E096
:1003400004C02297FE010E948011CE3FD107C9F759
:100350000E940A0E0C940B140C9400000F931F9330
:10036000CF93DF93082F60E080910D010E94EF0C86
:1003700085E0089F800111240B541E4FC0E0D0E09F
:10038000F801EC0FFD1F208140E060910F0180918A
:1003900011010E94250D2196C530D10589F761E034
:1003A00080910D01DF91CF911F910F910C94EF0C73
:1003B000CF93DF9300D000D000D0CDB7DEB761E09F
:1003C000809111010E94B60C61E080910F010E94A2
:1003D000B60C61E080910D010E94B60C61E0809145
:1003E0000B010E94B60C61E0809109010E94B60CDD
:1003F00061E0809107010E94B60C89EE91E00E94B5
:1004000001070E94890B811112C06EE870E084EB35
:1004100092E00E94800E41E251E06AE271E0CE017A
:1004200001960E94B409CE0101960E947D0A26968B
:100430000FB6F894DEBF0FBECDBFDF91CF91089508
:100440001F93CF93DF93EC011092AF0115E08091E1
:10045000AF01883008F0A7C06091B00170E064502F
:100460007109CE010E9400102091AF0130E0FC0123
:100470008081F90198E08902E00DF11D1124EE550B
:10048000F040E491129FD001139FB00D1124AB54A2
:10049000BE4FEE0FEE0F1496EC936091B00170E03A
:1004A00063507109CE010E9400102091AF0130E02D
:1004B000FC018081F90198E08902E00DF11D112411
:1004C000EE55F040E491129FD001139FB00D11241E
:1004D000AB54BE4FEE0FEE0F1396EC936091B0014C
:1004E00070E062507109CE010E9400102091AF01AE
:1004F00030E0FC018081F90198E08902E00DF11DF6
:100500001124EE55F040E491129FD001139FB00DDD
:100510001124AB54BE4FEE0FEE0F1296EC93609188
:10052000B00170E061507109CE010E94001020916D
:10053000AF0130E0FC018081F90198E08902E00D13
:10054000F11D1124EE55F040E491129FD001139F4C
:10055000B00D1124AB54BE4FEE0FEE0F1196EC937D
:100560006091B00170E0CE010E9400104091AF0197
:10057000242F30E0FC018081F90198E08902E00D30
:10058000F11D1124EE55F040E491129FD001139F0C
:10059000B00D1124AB54BE4FEE0FEE0FEC934F5F36
:1005A0004093AF0154CFDF91CF911F9108951F93D6
:1005B000CF93DF9390E09093B4018093B3011092B6
:1005C000B101C1E0D0E02091B10130E08091B301F0
:1005D0009091B4012817390790F51092B20110914B
:1005E000B201183030F560E0809107010E94EF0CF5
:1005F0009E01012E01C0220F0A94EAF7209541E0E6
:100600006091090180910B010E94250D8091B2013A
:100610000E94AE0161E0809107010E94EF0C82EC24
:1006200091E00E94470C8091B2018F5F8093B201EC
:10063000D6CF8091B1018F5F8093B101C4CFDF919C
:10064000CF911F910895CF92DF92EF92FF920F9377
:100650001F93CF93DF93CDB7DEB7AA970FB6F89469
:10066000DEBF0FBECDBF0E94F20A2093DD013093A2
:10067000DE014093DF015093E0016093E10170934C
:10068000E2014AE0CE016A3020F085960E944E0FCA
:100690001DC007960E944E0F66E371E0CE010196E1
:1006A0000E94000FBE01695F7F4FCE0101960E943C
:1006B000D30FBC01CE0185960E942D0FCE0101966D
:1006C0000E94920ECE0107960E94920E6091E20166
:1006D0004AE0CE016A3020F04F960E944E0F1DC0B6
:1006E00007960E944E0F66E371E0CE0101960E94CC
:1006F000000FBE01695F7F4FCE0101960E94D30FAC
:10070000BC01CE014F960E942D0FCE0101960E9492
:10071000920ECE0107960E94920E8DED91E00E94FE
:10072000680AE82FF0E0EE0FFF1FED5EFE4F00813C
:1007300011814AE06091E001CE0101960E944E0FC6
:100740004AE06091DF01CE0107960E944E0F4AE019
:100750006091DE01CE010D960E944E0F6091DD0189
:1007600070E06053784F4AE0CE0149960E947B0FBB
:10077000BE01675E7F4FCE0143960E942D0F68E356
:1007800071E0CE0143960E94E60FBE01635F7F4F8A
:100790000E94D30F68E371E00E94E60FBE01695F1B
:1007A0007F4F0E94D30F60E471E00E94E60FBE010C
:1007B0006F5F7F4F0E94D30F6AE371E00E94E60FE4
:1007C000BE016B5D7F4F0E94D30F6AE371E00E9410
:1007D000E60FBE01615E7F4F0E94D30F6CE371E0B4
:1007E0000E94E60FB8010E94E60F6FE371E00E94DD
:1007F000E60FBC0183EE91E00E94160FCE014396F6
:100800000E94920ECE0149960E94920ECE010D9644
:100810000E94920ECE0107960E94920ECE01019682
:100820000E94920EE090E701F090E8011092B00172
:1008300008E010E095E0D92E8091B00190E08E158F
:100840009F050CF0B7C01092AE012091AE0130E0D0
:100850006091060170E0C8010E9429112617370730
:100860000CF0A2C01092AF018091AF01883008F067
:1008700092C06091B00170E083EE91E00E9423107D
:100880008093AC01C090AF014C2D50E0FA0198E08C
:100890008902E00DF11D1124EE55F0408491809302
:1008A000AD01F091060198012F1B3109D49ED001B2
:1008B000D59EB00D1124AB54BE4F13966C91139777
:1008C00070E0022E02C0759567950A94E2F71496BF
:1008D0004C9114970F2E01C0440F0A94EAF7462B4F
:1008E00014964C93149712966C91129770E0022E06
:1008F00002C0759567950A94E2F713964C91139789
:100900000F2E01C0440F0A94EAF7462B13964C931E
:10091000139711966C91119770E0022E02C0759595
:1009200067950A94E2F712964C9112970F2E01C028
:10093000440F0A94EAF7462B12964C9312976C9147
:1009400070E0022E02C0759567950A94E2F7119641
:100950004C9111970F2E01C0440F0A94EAF7462BD1
:1009600011964C9311974091AE0190E04F9F201942
:100970003109112402C0959587952A95E2F72C91AB
:100980000F2E01C0220F0A94EAF7282B2C93C39450
:10099000C092AF0169CF85E00E94D7028091AE017D
:1009A0008F5F8093AE0151CF8091B0018F5F8093B4
:1009B000B00142CFCE014F960E94920ECE01859695
:1009C0000E94920EAA960FB6F894DEBF0FBECDBF5E
:1009D000DF91CF911F910F91FF90EF90DF90CF901B
:1009E0000895FF920F931F93CF93DF93CDB7DEB798
:1009F00068970FB6F894DEBF0FBECDBF0E94F20A13
:100A00002093DD013093DE014093DF015093E0013C
:100A10006093E1017093E2014AE0652FCE015A3004
:100A200020F043960E944E0F1DC007960E944E0F65
:100A300066E371E0CE0101960E94000FBE01695F7E
:100A40007F4FCE0101960E94D30FBC01CE01439689
:100A50000E942D0FCE0101960E94920ECE010796A4
:100A60000E94920E6091E1014AE0CE016A3020F0CE
:100A70000D960E944E0F1DC007960E944E0F66E312
:100A800071E0CE0101960E94000FBE01695F7F4FA9
:100A9000CE0101960E94D30FBC01CE010D960E949B
:100AA0002D0FCE0101960E94920ECE0107960E9454
:100AB000920EBE016D5E7F4FCE0101960E942D0FFA
:100AC0006AE371E0CE0101960E94E60FBE01635F0A
:100AD0007F4F0E94D30FBC0183EE91E00E94160F5E
:100AE000CE0101960E94920EBE016D5E7F4FCE0137
:100AF00001960E942D0F60E471E0CE0101960E94E4
:100B0000E60FBE01635F7F4F0E94D30FBC01CE0191
:100B100007960E942D0FCE0101960E94920E109210
:100B2000B00105E010E08091B00190E02091E70174
:100B30003091E8012C5F3F4F8217930708F087C080
:100B40000196B8010E942911892B09F07AC063EE41
:100B500071E0CE0101960E942D0FCE0101960E94F8
:100B60002002CE0101960E94920E84EF0E94D702CD
:100B7000BE01695F7F4FCE0101960E942D0FCE010D
:100B800001960E942002CE0101960E94920E84EFEF
:100B90000E94D70263EE71E0CE0101960E942D0FF4
:100BA000CE0101960E942002CE0101960E94920E73
:100BB00084EF0E94D702BE01695F7F4FCE0101968C
:100BC0000E942D0FCE0101960E942002CE010196B7
:100BD0000E94920E84EF0E94D70263EE71E0CE0174
:100BE00001960E942D0FCE0101960E942002CE0197
:100BF00001960E94920E84EF0E94D70228E0F22E06
:100C000040E04830B8F485E0489F900111242B540F
:100C10003E4F80E090E0F901E80FF91F5581473021
:100C200011F0508301C0108201968530910599F72B
:100C30004F5FE7CF4093AF018AE00E94D702FA945A
:100C4000F9F68091B0018F5F8093B0016CCFCE0137
:100C500007960E94920ECE010D960E94920ECE0132
:100C600043960E94920E68960FB6F894DEBF0FBEB0
:100C7000CDBFDF91CF911F910F91FF90089561E05B
:100C80008DE00E94EF0C0E94230360E08DE00E9443
:100C9000EF0C6CEB72E080E090E00E941F0C61E0D2
:100CA0008DE00E94EF0C0E94F10460E08DE00C9456
:100CB000EF0C6DE871E083EE91E00E94000F40E0E0
:100CC00050E0BA018DED91E00C945A0983EE91E069
:100CD0000C94920E8091190290E020911A02821BCE
:100CE0009109089520911A0280911902281750F451
:100CF000E22FF0E0E55EFD4F808190E02F5F2093D2
:100D00001A0208958FEF9FEF0895E0911A028091E3
:100D10001902E81730F4F0E0E55EFD4F808190E0C5
:100D200008958FEF9FEF08950895CF92DF92EF928D
:100D3000FF920F931F93CF93DF937C01CB018A0126
:100D40002091F501222389F0EB016B01C40ED51E21
:100D5000CC15DD0569F06991D701ED91FC91019009
:100D6000F081E02DC7010995F3CF642F0E94F607AB
:100D7000C801DF91CF911F910F91FF90EF90DF900D
:100D8000CF900895CF93DF931F92CDB7DEB76983DD
:100D90002091F5012223D1F02091F601203240F07C
:100DA00021E030E0FC013383228380E090E015C035
:100DB0008091F701E82FF0E0E850FE4F9981908391
:100DC0008F5F8093F7018093F60105C061E0CE014B
:100DD00001960E94F60781E090E00F90DF91CF919D
:100DE0000895FC011382128248EE53E060E070E047
:100DF00044835583668377838FE791E09183808373
:100E0000089510921A02109219021092F70110928E
:100E1000F6010C944107862F413208F040E26BE165
:100E200072E00E945F0710921A02809319020895DF
:100E300021E00C940B0781E08093F5016093180288
:100E40001092F7011092F60108950C941B070F936E
:100E5000062F21E04091F60168EF71E080911802C1
:100E60000E94A3071092F7011092F6011092F5016B
:100E70000F91089561E00C94270789EE91E00C949E
:100E8000F1061092A80281E08093A6021092A502BA
:100E900061E082E10E94EF0C61E083E10E94EF0CCF
:100EA000E9EBF0E080818E7F808380818D7F80837D
:100EB00088E48093B80085E48093BC0008954132B3
:100EC00008F03FC09091A8029111FCCF91E090935F
:100ED000A8022093A6022FEF20933B0210928002DB
:100EE000240F20937F029093A7029091A702880F6E
:100EF000892B8093A7028091A502813041F4109242
:100F0000A5028091A7028093BB0085EC01C085EE0D
:100F10008093BC008091A8028130E1F3809180022F
:100F2000841710F44091800221E832E0FB01D901DE
:100F30008A2F821B841718F48D918193F9CF842F07
:100F4000089580E008950F93413208F046C09091D3
:100F5000A8029111FCCF92E09093A8020093A60200
:100F60009FEF90933B021092800240937F02FB011F
:100F700061E872E0DB019A2F961B941718F49191A7
:100F80009D93F9CF1092A7029091A702880F892B09
:100F90008093A7028091A502813041F41092A502AE
:100FA0008091A7028093BB0085EC01C085EE809301
:100FB000BC00222321F08091A8028230E1F38091CD
:100FC0003B028F3F61F080913B02803251F0809173
:100FD0003B02803341F483E007C081E005C080E03C
:100FE00003C082E001C084E00F910895613298F45B
:100FF0002091A802243089F460935D02FC018FE502
:1010000092E0DC012A2F281B261718F421912D933A
:10101000F9CF80E0089581E0089582E0089585ED9C
:101020008093BC008091BC0084FDFCCF1092A8028C
:10103000089585EC8093BC001092A80208951F9239
:101040000F920FB60F9211242F933F934F935F93FC
:101050006F937F938F939F93AF93BF93EF93FF9380
:101060008091B900887F803609F49CC068F5883289
:1010700009F45BC090F4803109F454C038F488233B
:1010800009F4F5C0883009F44DC0F5C0883109F481
:101090004CC0803209F45DC0EEC0803409F468C0F1
:1010A00048F4803309F455C0883309F0E4C08093D4
:1010B0003B02A8C0803509F44FC0883509F45DC0F3
:1010C000883409F0D8C0D5C0883909F4C6C0A8F45E
:1010D000883709F467C038F4883609F463C080376C
:1010E00009F460C0C8C0883809F4B7C0803909F471
:1010F0005FC0803809F0BFC05BC0803B09F485C089
:1011000038F4803A09F466C0883A09F47EC0B3C066
:10111000803C09F4A6C0883C09F4A3C0883B09F4CC
:1011200089C0A9C08091A70210C0909180028091CF
:101130007F02981770F5E091800281E08E0F809316
:101140008002F0E0EF57FD4F80818093BB0085EC7B
:1011500085C080933B028DC0E091800281E08E0FBC
:10116000809380028091BB00F0E0EF57FD4F8083B9
:101170009091800280917F026DC0E091800281E0B9
:101180008E0F809380028091BB00F0E0EF57FD4FFF
:1011900080838091A60281116CC081E08093A502BA
:1011A00084EA60C083E08093A80210923C02CFCF13
:1011B00080913C02803208F050C0E0913C0281E016
:1011C0008E0F80933C028091BB00F0E0E35CFD4F0A
:1011D0008083BDCF80913C02803230F4E0913C02AC
:1011E000F0E0E35CFD4F10820E940F0860913C022A
:1011F00070E0E091A102F091A2028DE392E00995E6
:1012000010923C020E94190836C084E08093A80224
:1012100010925E0210925D02E091A302F091A4028E
:10122000099580915D02811105C081E080935D0286
:1012300010925F02E0915E0281E08E0F80935E0269
:10124000F0E0E15AFD4F80818093BB0090915E02F7
:1012500080915D02981708F47ACF85E88093BC00EE
:101260000AC085EC8093BC001092A80204C01092C2
:101270003B020E940F08FF91EF91BF91AF919F91A8
:101280008F917F916F915F914F913F912F910F902F
:101290000FBE0F901F901895FC01208120532A301B
:1012A00008F020E0FC0181818053FAE02F9F800D3F
:1012B00011240895CF92DF92EF92FF92CF93DF93A4
:1012C000EC018CE3C82ED12CE12CF12CCB01BA011E
:1012D000A70196010E945F116D83CA01B901A701A0
:1012E00096010E945F116C83CA01B90128E130E0C8
:1012F00040E050E00E945F116B83188243E95EEF8B
:10130000E8818E2F8370A1E009F0A0E08A2F90E0A1
:10131000BC0163597E4F2617370740F0BA01681B9E
:10132000790B260F371FEF5FE883EACF81E08983CF
:101330008981E82FF0E0EF55FD4FE491AA2319F0E1
:10134000823009F4EF5FF0E02E173F0720F02E1BEC
:101350003F0B8F5FECCF2F5F2A83DF91CF91FF9000
:10136000EF90DF90CF900895CF92DF92EF92FF92AF
:101370000F931F93CF93DF93EC017B016A01CB01A5
:1013800009960E944C098883F7010081112707FD07
:101390001095212F312FF801E154F109E331F105C6
:1013A00058F5EC5CFF4F0C947E11F701818181367A
:1013B00039F082818E3611F486E01DC087E01BC0B3
:1013C00081E019C082E017C0F7018281823711F4F1
:1013D00084E011C088E00FC0F7018281823711F4E8
:1013E00083E009C085E007C089E005C08AE003C04A
:1013F0008BE001C08CE08983C70104960E944C09F0
:101400008A83C6010E944C098B83C60103960E9401
:101410004C098C83C60106960E944C098D83DF918E
:10142000CF911F910F91FF90EF90DF90CF90089593
:10143000CF93DF93EC0169813881432F50E08A819B
:1014400090E0E2EAF2E021E02E1B722F7E0F761789
:1014500028F47491870F911D3196F7CF633018F0FF
:10146000337009F401966DE671E0469F9001479F45
:10147000300D569F300D1124215031094D5F5F4FC3
:101480005695479556954795240F351F280F391FB8
:10149000A8E1B0E00E9484119B01AC018B81280F70
:1014A000311D411D511DACE3B0E00E9493119B0121
:1014B000AC018C81280F311D411D511D0E949311DB
:1014C0002D81620F711D811D911DDF91CF910895B6
:1014D0000E94180A20E831E541E050E00E945F11C7
:1014E000C901069667E070E00E941511089580E634
:1014F0008093AA021092A90208951F93CF93DF93BD
:10150000EC0168E670E089EE91E00E94250760E05A
:1015100089EE91E00E94C2062D811AE0822F612F90
:101520000E940911682F660F680F660F620F89EE1F
:1015300091E00E94C2062C81822F612F0E94091126
:10154000682F660F680F660F620F89EE91E00E94A8
:10155000C2062B81822F612F0E940911682F660F0E
:10156000680F660F620F89EE91E00E94C20660E08C
:1015700089EE91E00E94C2062A81822F612F0E948B
:101580000911682F660F680F660F620F89EE91E0F0
:101590000E94C2062981822F612F0E940911682FA3
:1015A000660F680F660F620F89EE91E00E94C20617
:1015B0002881822F612F0E940911682F660F680F02
:1015C000660F620F89EE91E00E94C20660E089EE2C
:1015D00091E00E94C20689EE91E0DF91CF911F91C8
:1015E0000C943A071F93CF93DF93CDB7DEB72B97B9
:1015F0000FB6F894DEBF0FBECDBF68E670E089EE8F
:1016000091E00E94250760E089EE91E00E94C20609
:1016100089EE91E00E943A0747E050E068E670E00A
:1016200089EE91E00E94180789EE91E00E9472060F
:101630009C01332774E0359527957A95E1F71AEFE9
:10164000782F129F700D112489EE91E07B870E9404
:1016500072069C013327E4E035952795EA95E1F77A
:10166000682F129F600D112489EE91E06A870E9415
:1016700072069C013327F4E035952795FA95E1F73A
:10168000582F129F500D112489EE91E059870E9426
:10169000720689EE91E00E9472069C013327A4E055
:1016A00035952795AA95E1F7482F129F400D1124F3
:1016B00089EE91E048870E9472069C013327B4E0CE
:1016C00035952795BA95E1F7382F129F300D1124E3
:1016D00089EE91E03F830E947206FC01FF2794E0AF
:1016E000F595E7959A95E1F7282F1E9F200D112477
:1016F0003F81488559856A857B8580E090E02B96FF
:101700000FB6F894DEBF0FBECDBFDF91CF911F9112
:101710000895CF93DF9368E670E089EE91E00E9430
:10172000250760E089EE91E00E94C20689EE91E013
:101730000E943A0741E050E068E670E089EE91E0EF
:101740000E94180789EE91E00E94720687FB8827A5
:1017500080F9C82F80E0D82F81E0C8278C2FDF9137
:10176000CF9108951F920F920FB60F9211242F93CD
:101770003F938F939F93AF93BF938091AC029091CF
:10178000AD02A091AE02B091AF023091AB0223E066
:10179000230F2D3720F40196A11DB11D05C026E8A9
:1017A000230F0296A11DB11D2093AB028093AC02C2
:1017B0009093AD02A093AE02B093AF028091B002BD
:1017C0009091B102A091B202B091B3020196A11D15
:1017D000B11D8093B0029093B102A093B202B09376
:1017E000B302BF91AF919F918F913F912F910F9035
:1017F0000FBE0F901F9018953FB7F8948091B002DC
:101800009091B102A091B202B091B30226B5A89B0B
:1018100005C02F3F19F00196A11DB11D3FBF6627DE
:10182000782F892F9A2F620F711D811D911D42E023
:10183000660F771F881F991F4A95D1F70895CF9299
:10184000DF92EF92FF92CF93DF936B017C010E94B6
:10185000FC0BEB01C114D104E104F10489F00E94F6
:1018600025100E94FC0B6C1B7D0B683E734090F3AF
:1018700081E0C81AD108E108F108C851DC4FEACF6D
:10188000DF91CF91FF90EF90DF90CF90089582305D
:10189000910538F0880F991F880F991F05970197B8
:1018A000F1F70895789484B5826084BD84B5816031
:1018B00084BD85B5826085BD85B5816085BDEEE658
:1018C000F0E0808181608083E1E8F0E01082808137
:1018D00082608083808181608083E0E8F0E08081A5
:1018E00081608083E1EBF0E0808184608083E0EBC5
:1018F000F0E0808181608083EAE7F0E080818460AD
:101900008083808182608083808181608083808108
:10191000806880831092C1000895833081F028F49C
:10192000813099F08230A1F008958730A9F0883095
:10193000B9F08430D1F4809180008F7D03C0809114
:1019400080008F7780938000089584B58F7702C0E0
:1019500084B58F7D84BD08958091B0008F7703C0DA
:101960008091B0008F7D8093B0000895CF93DF9376
:1019700090E0FC01EE53FD4F2491FC01EA52FD4F33
:101980008491882349F190E0880F991FFC01EC5065
:10199000FD4FA591B49186519D4FFC01C591D49105
:1019A0009FB7611108C0F8948C91209582238C9385
:1019B000888182230AC0623051F4F8948C91322FCE
:1019C000309583238C938881822B888304C0F8947C
:1019D0008C91822B8C939FBFDF91CF9108950F93B1
:1019E0001F93CF93DF931F92CDB7DEB7282F30E040
:1019F000F901E255FD4F8491F901EE53FD4F149129
:101A0000F901EA52FD4F04910023C9F0882321F027
:101A100069830E948D0C6981E02FF0E0EE0FFF1FBB
:101A2000E651FD4FA591B4919FB7F8948C91611147
:101A300003C01095812301C0812B8C939FBF0F9011
:101A4000DF91CF911F910F910895BF92CF92DF92B6
:101A5000EF92FF920F931F93CF93DF93C82ED62E52
:101A6000B42EC7E0D0E0022F10E087E0E82EF12C82
:101A7000B1100AC0F701EC1BFD0BB80102C075954F
:101A80006795EA95E2F707C0B8010C2E02C075957C
:101A900067950A94E2F7617077278C2D0E94EF0C0E
:101AA00061E08D2D0E94EF0C60E08D2D0E94EF0C07
:101AB0002197F0F6DF91CF911F910F91FF90EF905A
:101AC000DF90CF90BF9008951F920F920FB60F92A4
:101AD00011242F938F939F93EF93FF93E091C40270
:101AE000F091C5028081E091CA02F091CB0282FDA3
:101AF00012C090818091CD028F5F8F732091CE02B2
:101B0000821751F0E091CD02F0E0EC54FD4F958F3B
:101B10008093CD0201C08081FF91EF919F918F91C1
:101B20002F910F900FBE0F901F9018951F920F923C
:101B30000FB60F9211242F933F934F935F936F93A0
:101B40007F938F939F93AF93BF93EF93FF9384EB18
:101B500092E00E946110FF91EF91BF91AF919F9130
:101B60008F917F916F915F914F913F912F910F9046
:101B70000FBE0F901F90189584EB92E00E942610E4
:101B800021E0892B09F420E0822F08951092B702FA
:101B90001092B60288EE93E0A0E0B0E08093B80225
:101BA0009093B902A093BA02B093BB0280EA91E08D
:101BB0009093B5028093B40285EC90E09093C102BB
:101BC0008093C00284EC90E09093C3028093C202A1
:101BD00080EC90E09093C5028093C40281EC90E089
:101BE0009093C7028093C60282EC90E09093C90262
:101BF0008093C80286EC90E09093CB028093CA0257
:101C00001092CD021092CE021092CF021092D0020A
:101C1000089508950E94520C0E94090E0E94D80156
:101C2000C3E5D0E10E943F062097E1F30E945310E4
:101C3000F9CFCF92DF92EF92FF920F931F93CF9342
:101C4000DF936C017A01EB01E60EF71E00E010E075
:101C5000CE15DF0561F06991D601ED91FC910190FF
:101C6000F081E02DC6010995080F191FF1CFC801B9
:101C7000DF91CF911F910F91FF90EF90DF90CF9068
:101C800008956115710581F0DB010D900020E9F7E1
:101C9000AD0141505109461B570BDC01ED91FC9100
:101CA0000280F381E02D099480E090E00895EF92A6
:101CB000FF920F931F93CF93DF938C01FB01C0E042
:101CC000D0E064917F018FEFE81AF80A662361F093
:101CD000D801ED91FC910190F081E02DC8010995AA
:101CE000C80FD91FF701EDCFCE01DF91CF911F9122
:101CF0000F91FF90EF9008956BE871E00C94410E06
:101D00000F931F93CF93DF93EC010E94570E8C012A
:101D1000CE010E947C0E800F911FDF91CF911F9109
:101D20000F910895FC01808191810C943612CF931C
:101D3000DF93EC0188819981009711F00E9436129F
:101D4000198218821D821C821B821A82DF91CF9118
:101D500008950F931F93CF93DF93EC018B016F5F77
:101D60007F4F888199810E94C512009731F0998335
:101D700088831B830A8381E001C080E0DF91CF91DB
:101D80001F910F910895CF93DF93EC018881998182
:101D9000892B29F08A819B818617970760F4CE01F1
:101DA0000E94A90E882341F08C819D81892B19F412
:101DB000E881F981108281E0DF91CF910895EF925F
:101DC000FF920F931F93CF93DF93EC017B018A0166
:101DD000BA010E94C30E811104C0CE010E94970E69
:101DE00007C01D830C83B701888199810E949813D5
:101DF000CE01DF91CF911F910F91FF90EF90089549
:101E0000FC011182108213821282158214826115E4
:101E1000710559F0FB0101900020E9F7AF01415035
:101E20005109461B570B0C94DF0E0895CF93DF9397
:101E3000EC01FB018617970761F0608171816115E4
:101E4000710529F0448155810E94DF0E02C00E9475
:101E5000970ECE01DF91CF910895FC01118210827F
:101E600013821282158214820C94160FCF93DF9383
:101E7000EC016115710561F0FB0101900020E9F7AB
:101E8000AF0141505109461B570B0E94DF0E02C0A3
:101E90000E94970ECE01DF91CF9108950F931F936B
:101EA000CF93DF93CDB7DEB729970FB6F894DEBF97
:101EB0000FBECDBF8C01862FF801118210821382D4
:101EC00012821582148250E0BE016F5F7F4F90E056
:101ED0000E949F13BE016F5F7F4FC8010E94360FA3
:101EE00029960FB6F894DEBF0FBECDBFDF91CF911C
:101EF0001F910F9108950F931F93CF93DF93CDB749
:101F0000DEB761970FB6F894DEBF0FBECDBF8C0170
:101F1000CB01F80111821082138212821582148281
:101F200050E0BE016F5F7F4F0E949F13BE016F5F45
:101F30007F4FC8010E94360F61960FB6F894DEBF3E
:101F40000FBECDBFDF91CF911F910F910895EF92FA
:101F5000FF920F931F93CF93DF93EC017B010C81D2
:101F60001D816115710511F480E016C04115510500
:101F700091F0040F151FB8010E94C30E8823A1F32E
:101F8000288139818C819D81B701820F931F0E9426
:101F900098131D830C8381E0DF91CF911F910F91E6
:101FA000FF90EF900895CF93DF93EC01FB01448104
:101FB0005581608171810E94A70F811103C0CE01FC
:101FC0000E94970ECE01DF91CF910895CF93DF93BA
:101FD000EC016115710569F0FB0101900020E9F742
:101FE000AF0141505109461B570B0E94A70F8111A9
:101FF00003C0CE010E94970ECE01DF91CF910895CC
:10200000FC01848195816817790720F48081918192
:10201000009729F41092510381E593E00895860F0B
:10202000971F0895FC01248135816217730748F4D6
:1020300080819181009729F0FC01E60FF71F8081D4
:10204000089580E008950C9412100895FC01818D8C
:10205000228D90E0805C9F4F821B91098F7399279E
:102060000895FC01918D828D981731F0828DE80FD3
:10207000F11D858D90E008958FEF9FEF0895FC018D
:10208000918D828D981761F0828DDF01A80FB11DAF
:102090005D968C91928D9F5F9F73928F90E00895D3
:1020A0008FEF9FEF08958CEB9DE0892B49F080E046
:1020B00090E0892B29F00E94BC0D81110C94000046
:1020C0000895FC01848DDF01A80FB11DA35ABF4FF5
:1020D0002C91848D90E001968F739927848FA68927
:1020E000B7892C93A089B1898C9180648C93938D4E
:1020F000848D981306C00288F389E02D80818F7D3E
:1021000080830895CF93DF93EC01888D8823C9F0F5
:10211000EA89FB89808185FD05C0A889B9898C91F0
:1021200086FD0FC00FB607FCF5CF808185FFF2CF8B
:10213000A889B9898C9185FFEDCFCE010E946110ED
:10214000E7CFDF91CF910895CF92DF92FF920F9367
:102150001F93CF93DF931F92CDB7DEB76C0181E061
:10216000D60158968C9358975B969C915B975C969A
:102170008C915C97981307C05096ED91FC91519704
:10218000808185FD2EC0F601038D10E00F5F1F4F8B
:102190000F731127F02EF601848DF81211C00FB6BF
:1021A00007FCF9CFD6015096ED91FC9151978081B3
:1021B00085FFF1CFC60169830E9461106981EBCF71
:1021C000838DE80FF11DE35AFF4F6083D6015B96C4
:1021D0000C935B975296ED91FC91539780818062AE
:1021E0000CC0D6015696ED91FC915797608350969E
:1021F000ED91FC91519780818064808381E090E033
:102200000F90DF91CF911F910F91FF90DF90CF90B2
:102210000895991B79E004C0991F961708F0961B42
:10222000881F7A95C9F780950895AA1BBB1B51E1B9
:1022300007C0AA1FBB1FA617B70710F0A61BB70B36
:10224000881F991F5A95A9F780959095BC01CD01DB
:10225000089597FB072E16F4009407D077FD09D058
:102260000E94151107FC05D03EF4909581959F4F73
:102270000895709561957F4F0895A1E21A2EAA1BCB
:10228000BB1BFD010DC0AA1FBB1FEE1FFF1FA21726
:10229000B307E407F50720F0A21BB30BE40BF50B23
:1022A000661F771F881F991F1A9469F760957095AC
:1022B000809590959B01AC01BD01CF010895052E3D
:1022C00097FB1EF400940E94761157FD07D00E94E0
:1022D0003D1107FC03D04EF40C94761150954095B7
:1022E000309521953F4F4F4F5F4F089590958095C2
:1022F000709561957F4F8F4F9F4F0895EE0FFF1F91
:102300000590F491E02D0994A29FB001B39FC00104
:10231000A39F700D811D1124911DB29F700D811D11
:102320001124911D08950E948411A59F900DB49FC2
:10233000900DA49F800D911D11240895CF93DF93DC
:102340008230910510F482E090E0E0915403F09126
:10235000550320E030E0A0E0B0E0309739F1408153
:10236000518148175907B8F04817590771F482810D
:102370009381109729F013969C938E9312972CC0FB
:10238000909355038093540327C02115310531F0F4
:102390004217530718F0A901DB0101C0EF019A01B0
:1023A000BD01DF010280F381E02DD7CF211531057A
:1023B000F9F0281B390B2430310580F48A819B8188
:1023C0006115710521F0FB019383828304C0909312
:1023D000550380935403FE01329644C0FE01E20F80
:1023E000F31F8193919322503109398328833AC096
:1023F0002091520330915303232B41F42091020189
:102400003091030130935303209352032091000134
:10241000309101012115310541F42DB73EB74091AE
:10242000040150910501241B350BE0915203F091FA
:102430005303E217F307A0F42E1B3F0B28173907AD
:1024400078F0AC014E5F5F4F2417350748F04E0F10
:102450005F1F50935303409352038193919302C0A3
:10246000E0E0F0E0CF01DF91CF910895CF93DF93CB
:10247000009709F487C0FC01329713821282C09141
:102480005403D0915503209781F420813181280F86
:10249000391F80915203909153038217930779F566
:1024A000F0935303E09352036DC0DE0120E030E06F
:1024B000AE17BF0750F412964D915C9113979D0192
:1024C0004115510509F1DA01F3CFB383A2834081AD
:1024D0005181840F951F8A179B0771F48D919C91F0
:1024E0001197840F951F02969183808312968D9188
:1024F0009C911397938382832115310529F4F093DE
:102500005503E09354033EC0D9011396FC93EE9318
:1025100012974D915D91A40FB51FEA17FB0779F44F
:1025200080819181840F951F0296D90111969C9309
:102530008E938281938113969C938E931297E0E001
:10254000F0E08A819B81009719F0FE01EC01F9CF40
:10255000CE01029628813981820F931F2091520368
:10256000309153032817390769F4309729F41092F2
:1025700055031092540302C013821282D093530366
:10258000C0935203DF91CF910895A0E0B0E0EBEC4F
:10259000F2E10C94D813EC01CB01209719F40E94BE
:1025A0009E11B8C0FE01E60FF71F9E0122503109AF
:1025B000E217F30708F4ACC0D9010D911C911197F3
:1025C00006171707B8F00530110508F49FC0A801D9
:1025D000445051094617570708F498C00250110992
:1025E000061B170B019311936D937C93CF010E94EF
:1025F00036128CC05B01A01AB10A4E01800E911EEA
:10260000A0915403B0915503612C712C60E070E0EF
:10261000109709F449C0A815B905C9F5ED90FC90CB
:102620001197670142E0C40ED11CCA14DB0478F193
:1026300047018A189B08640142E0C40ED11C12961F
:10264000BC9012971396AC91B5E0CB16D10440F034
:10265000B282A38391828082D9018D939C9309C019
:102660000E5F1F4F0E0D1F1DF90111830083EB2D0F
:10267000FA2F6115710531F0DB011396FC93EE938F
:10268000129744C0F0935503E09354033FC06D91FB
:102690007C9111976616770608F43B01BD011296EE
:1026A0000D90BC91A02DB4CF609152037091530353
:1026B00068157905E9F468167906D0F440910001AF
:1026C000509101014115510541F44DB75EB760913C
:1026D000040170910501461B570BE417F507C0F480
:1026E000F0935303E0935203F901918380830EC06A
:1026F0000E949E117C01009759F0A801BE010E9422
:102700008F13CE010E943612C70104C0CE0102C051
:1027100080E090E0CDB7DEB7EEE00C94F413FB015F
:10272000DC0102C001900D9241505040D8F708954D
:10273000FB01DC0101900D920020E1F70895453284
:10274000510520F4423010F00C94AA13FB011082C2
:10275000CB010895BB27FB015527AA27880F991F96
:10276000AA1FA41710F0A41B83955051B9F7A05DC0
:10277000AA3308F0A95DA193009779F7B111B1933D
:102780001192CB010C94C413DC01FC01672F7191F1
:102790007723E1F7329704C07C916D937083629147
:1027A000AE17BF07C8F308952F923F924F925F92E2
:1027B0006F927F928F929F92AF92BF92CF92DF9251
:1027C000EF92FF920F931F93CF93DF93CDB7DEB7B6
:1027D000CA1BDB0B0FB6F894DEBF0FBECDBF09944A
:1027E0002A88398848885F846E847D848C849B84A1
:1027F000AA84B984C884DF80EE80FD800C811B81AF
:10280000AA81B981CE0FD11D0FB6F894DEBF0FBEDD
:10281000CDBFED01089513E0C6E0D3E004C0FE0192
:102820000E9480112296C830D107C9F7F894FFCFD3
:1028300000005603800001070008000600030004A2
:10284000000500420149015001580162016B01720B
:102850000132333A32333A3131004A756C20333128
:1028600020323031350030002F003A002C2000207B
:10287000200053554E444159004D4F4E444159009C
:1028800054554553444159005745444E45534441DE
:102890005900544855525344415900465249444105
:1028A000590053415455524441590000000000C2A0
:1028B0000695066A067206850694060D0A006E6184
:1028C0006E00696E66006F7666002E0000000000E4
:0C28D000A410190E26103F1031108210C9
:00000001FF
