:100000000C94BD010C94E5010C94E5010C94E50100
:100010000C94E5010C94E5010C94E5010C94E501C8
:100020000C94E5010C9454040C94E5010C94E50146
:100030000C94E5010C94E5010C94E5010C94E501A8
:100040000C940A040C94E5010C94D8030C94B203AC
:100050000C94E5010C94E5010C94E5010C94E50188
:100060000C94E5010C94E501FFFFFFFFFFFFFFD0BB
:10007000FFFFFFFFF8FFF8FFFF147F147F14002439
:100080002A7F2A1200C4C81026460036495522503D
:1000900000000503000000001C2241000000412276
:1000A0001C000014083E08140008083E0808000060
:1000B00000503000001010101010000060600000B0
:1000C000002010080402003E5149453E0000427FD6
:1000D0004000004261514946002141454B31001822
:1000E00014127F10002745454539003C4A494930E4
:1000F000000171090503003649494936000649499E
:10010000291E0000363600000000563600000008A8
:100110001422410000141414141400004122140885
:1001200000020151090600324959513E0081EEEEAC
:10013000EE81FFC9B6B6B680FFDDBEBEBEC1FF7F91
:100140004141221C007F49494941007F09090901B9
:10015000003E4149497A007F0808087F0000417F3E
:100160004100002040413F01007F08142241007FF0
:1001700040404040007F020C027F007F0408107F57
:10018000003E4141413E007F09090906003E4151C0
:10019000215E007F0919294600464949493100017D
:1001A000017F0101003F4040403F001F2040201FD1
:1001B000003F4038403F0063140814630007087094
:1001C000080700615149454300007F414100005547
:1001D0002A552A55000041417F0000040201020413
:1001E0000040404040400000010204000020545400
:1001F0005478007F48444438003844444420003850
:100200004444487F00385454541800087E090102C1
:10021000000C5252523E007F080404780000447DD6
:100220004000002040443D00007F102844000000B2
:10023000417F4000007C04180478007C08040478A6
:10024000003844444438007C141414080008141482
:10025000187C007C0804040800485454542000040E
:100260003F444020003C4040207C001C2040201C9B
:10027000003C4030403C004428102844000C5050C2
:10028000503C004464544C4400183C783C1800C670
:10029000EEFEEEC600000609090600100810201048
:1002A0000000000008000201000003040700000035
:1002B000000000000053656C657361692042616352
:1002C00061205465787400426163612054657874DC
:1002D0000053656C65736169204261636120506100
:1002E00072616D004261636120506172616D005402
:1002F0006578745F436F6E666967757265640050F8
:100300006172616D5F436F6E6669677572656400E7
:1003100073657420626172697300736574206B6F1A
:100320006C6F6D007365742073706565640074652F
:10033000787420646974756C69730000000000258E
:100340000028002B0000000000240027002A0004E1
:10035000040404040404040202020202020303036C
:100360000303030102040810204080010204081066
:100370002001020408102000FB0711241FBECFEF4C
:10038000D8E0DEBFCDBF11E0A0E0B1E0ECE8F0E1E5
:1003900002C005900D92A03BB107D9F722E0A0EB77
:1003A000B1E001C01D92A337B207E1F711E0CDEB38
:1003B000D1E004C02197FE010E943E08CC3BD1074A
:1003C000C9F70E94B8050C9444080C94000090E012
:1003D000FC01ED59FC4F2491815B9C4FFC01849101
:1003E000882399F090E0880F991FFC01EB5BFC4F8C
:1003F000A591B491FC01E55CFC4F859194918FB778
:10040000F894EC91E22BEC938FBF0895AF92BF92DA
:10041000CF92DF92EF92FF920F931F93CF93DF93D0
:100420006C017B018B01040F151FEB015E01AE18FF
:10043000BF08C017D10759F06991D601ED91FC9121
:100440000190F081E02DC6010995892B79F7C5014E
:10045000DF91CF911F910F91FF90EF90DF90CF90A0
:10046000BF90AF900895FC01538D448D252F30E04F
:10047000842F90E0821B930B541710F0CF960895B1
:1004800001970895FC01918D828D981761F0A28DDE
:10049000AE0FBF2FB11D5D968C91928D9F5F9F73A4
:1004A000928F90E008958FEF9FEF0895FC01918D5A
:1004B000828D981731F0828DE80FF11D858D90E0C7
:1004C00008958FEF9FEF0895FC01918D228D892F64
:1004D00090E0805C9F4F821B91098F73992708954C
:1004E00086ED91E00E94640221E0892B09F420E06E
:1004F000822F089580E090E0892B29F00E947002FD
:1005000081110C9400000895FC01A48DA80FB92F4F
:10051000B11DA35ABF4F2C91848D90E001968F732B
:100520009927848FA689B7892C93A089B1898C914A
:10053000837080648C93938D848D981306C0028899
:10054000F389E02D80818F7D80830895EF92FF9263
:100550000F931F93CF93DF93EC0181E0888F9B8DE6
:100560008C8D98131AC0E889F989808185FF15C0A0
:100570009FB7F894EE89FF896083E889F9898081C3
:100580008370806480839FBF81E090E0DF91CF9192
:100590001F910F91FF90EF900895F62E0B8D10E0B4
:1005A0000F5F1F4F0F731127E02E8C8D8E110CC023
:1005B0000FB607FCFACFE889F989808185FFF5CF6E
:1005C000CE010E948402F1CFEB8DEC0FFD2FF11DC7
:1005D000E35AFF4FF0829FB7F8940B8FEA89FB89AB
:1005E00080818062CFCF0F931F93CF93DF938C01D5
:1005F000D0E0C0E0F801EC0FFD1F6491662341F0EC
:1006000086ED91E00E94A602892B11F02196F2CF8F
:1006100042E050E06CEA71E086ED91E00E94060253
:100620008C0F9D1FDF91CF911F910F910895CF9354
:10063000DF93EC01888D8823B9F0AA89BB89E8890A
:10064000F9898C9185FD03C0808186FD0DC00FB6B0
:1006500007FCF7CF8C9185FFF2CF808185FFEDCF2E
:10066000CE010E948402E9CFDF91CF91089590E0FE
:10067000FC01EF55FD4F2491FC01ED59FC4F3491E5
:10068000FC01E15BFC4FE491EE23C9F0222339F039
:10069000233001F1A8F4213019F1223029F1F0E0E2
:1006A000EE0FFF1FE55CFC4FA591B4918FB7F89456
:1006B000EC91611126C030953E233C938FBF089585
:1006C0002730A9F02830C9F0243049F78091800004
:1006D0008F7D03C0809180008F7780938000DFCF73
:1006E00084B58F7784BDDBCF84B58F7DFBCF8091C0
:1006F000B0008F778093B000D2CF8091B0008F7D13
:10070000F9CF3E2BDACF1092C3011092C201209193
:1007100000018091C2019091C30161E02817190680
:10072000B1F0ACF087E00E94370361E085E00E9401
:10073000370360E085E00E9437038091C201909109
:10074000C30101969093C3018093C201E0CF86E07C
:100750000E94370360E086E00C9437030C94300865
:100760000C9428081F920F920FB60F9211242F930A
:100770003F934F935F936F937F938F939F93AF9329
:10078000BF93EF93FF9386ED91E00E948402FF9167
:10079000EF91BF91AF919F918F917F916F915F91F9
:1007A0004F913F912F910F900FBE0F901F90189572
:1007B0001F920F920FB60F9211242F938F939F9336
:1007C000EF93FF93E091E601F091E7018081E091E2
:1007D000EC01F091ED0182FD1BC090818091EF0151
:1007E0008F5F8F732091F001821741F0E091EF014C
:1007F000F0E0EA52FE4F958F8093EF01FF91EF9169
:100800009F918F912F910F900FBE0F901F90189571
:100810008081F4CF1F920F920FB60F9211242F9365
:100820003F938F939F93AF93BF938091C401909117
:10083000C501A091C601B091C7013091BD0123E06F
:10084000230F2D3758F50196A11DB11D2093BD0131
:100850008093C4019093C501A093C601B093C701D2
:100860008091B9019091BA01A091BB01B091BC01F6
:100870000196A11DB11D8093B9019093BA01A09377
:10088000BB01B093BC01BF91AF919F918F913F91FC
:100890002F910F900FBE0F901F90189526E8230FF1
:1008A0000296A11DB11DD2CF1F920F920FB60F92CB
:1008B00011240F931F932F933F934F935F936F9345
:1008C0007F938F939F93AF93BF93CF93DF93EF93D8
:1008D000FF938091B801811136C18091B60190914A
:1008E000B70101969093B7018093B6012091B601AC
:1008F0003091B701809102019091030128173907C7
:1009000070F11092B7011092B6018091BE019091E2
:10091000BF0101969093BF018093BE018091BE01FB
:100920009091BF010597D9F41092BF011092BE01BA
:100930008091C0019091C10101969093C101809373
:10094000C0018091C0019091C1012091C901281777
:10095000190609F024F41092C1011092C00180918F
:10096000C0019091C1019093B5018093B401809131
:10097000BE019091BF018093B3011092B201CFEDFF
:10098000DFEF16E08091B20120910101082E000CEA
:10099000990B2817190609F00CF460C08091B30177
:1009A0008630E1F0E091B401F091B5018091B3019E
:1009B000EC5FFE4F90819E01291B310997FD339515
:1009C000129FF001139FF00D1124E80FF11D87FD18
:1009D000FA95E859FF4FE491E093B1012091B001FD
:1009E0008091B10190E002C0959587952A95E2F734
:1009F00060E080FF61E082E00E94370361E084E014
:100A00000E94370360E084E00E9437038091B301C5
:100A10008F5F8093B3018091B3018630C9F48091D8
:100A2000B4019091B50101969093B5018093B40102
:100A30001092B3018091B4019091B5012091C90148
:100A40002817190609F024F41092B5011092B40188
:100A50008091B2018F5F8093B20194CF0E94830393
:100A600061E083E00E94370360E083E00E94370387
:100A7000C091B0011092C3011092C2010C2F10E07E
:100A80008091C2019091C30180179107B4F461E095
:100A900087E00E94370361E085E00E94370360E051
:100AA00085E00E9437038091C2019091C3010196B5
:100AB0009093C3018093C201E3CF60E087E00E947E
:100AC000370361E085E00E94370360E085E00E9423
:100AD0003703CF5FD0E0D093C301C093C201209110
:100AE00000018091C2019091C30161E028171906AD
:100AF000B1F0ACF087E00E94370361E085E00E942E
:100B0000370360E085E00E9437038091C201909135
:100B1000C30101969093C3018093C201E0CF86E0A8
:100B20000E94370360E086E00E9437038091B001A5
:100B30008F5F8093B0019091B00180910001981374
:100B400002C01092B001FF91EF91DF91CF91BF9160
:100B5000AF919F918F917F916F915F914F913F9155
:100B60002F911F910F910F900FBE0F901F9018950E
:100B7000789484B5826084BD84B5816084BD85B578
:100B8000826085BD85B5816085BD80916E00816084
:100B900080936E001092810080918100826080932A
:100BA000810080918100816080938100809180002C
:100BB0008160809380008091B10084608093B10057
:100BC0008091B00081608093B00080917A00846051
:100BD00080937A0080917A00826080937A0080917D
:100BE0007A00816080937A0080917A008068809397
:100BF0007A001092C100E091E601F091E70182E0F5
:100C00008083E091E201F091E3011082E091E40140
:100C1000F091E5018FEC80831092EE01E091EA0102
:100C2000F091EB0186E08083E091E801F091E90129
:100C3000808180618083E091E801F091E901808109
:100C400088608083E091E801F091E901808180680B
:100C50008083E091E801F091E90180818F7D8083BC
:100C60008091B10084608093B100809170008160B8
:100C7000809370001092B20084E00E94E70183E04C
:100C80000E94E70182E00E94E70185E00E94E701FF
:100C900086E00E94E70187E00E94E70183E090E0A0
:100CA0000E94B0038038A1F584EE92E00E94F30226
:100CB00090E080E00E94B0038093000181E090E02A
:100CC0000E94B0038093010184E090E00E94B00391
:100CD0008093C8018091C80190E0982F8827909355
:100CE00003018093020185E090E00E94B0038093AD
:100CF000C8012091C8018091020190910301822BCB
:100D0000909303018093020181ED92E00E94F3022F
:100D100082E090E00E94B003803869F5F89487EC97
:100D200092E00E94F3021092C3011092C2018091DE
:100D3000C2019091C30186399105C4F48091C2012A
:100D40009091C30106960E94B003E091C201F09118
:100D5000C301EC5FFE4F80838091C2019091C3017B
:100D600001969093C3018093C201E1CF85EB92E09D
:100D70000E94F302789484E091E0FC01019000204D
:100D8000E9F7CF01855091408093C9011092C101CC
:100D90001092C0011092BF011092BE0104E011E058
:100DA000C0E0D0E0FF24F3942FB7F8948091C40101
:100DB0009091C501A091C601B091C7012FBF40918C
:100DC000D2015091D3016091D4017091D5015C01A1
:100DD0006D01A41AB50AC60AD70AB601A501443F97
:100DE00051406105710540F08093D2019093D30189
:100DF000A093D401B093D50186ED91E00E946402E6
:100E00001816190684F586ED91E00E944202909131
:100E1000D101E92FF0E0E453FE4F80839F5F909370
:100E2000D1018091CB01813071F5E091CA01EF5F72
:100E3000E093CA01E73920F48091CC018F3FF1F4AF
:100E40001092CA011092CB01F80101900020E9F73D
:100E5000CF01855091408093C9018EE293E00E94BA
:100E6000F3021092D101209709F49ECF0E947002E4
:100E7000882309F499CF0E94000096CFF0E0ED5F3F
:100E8000FE4F8083EECF8111EECF8091CC01823571
:100E9000E9F59130A1F41092C9011092C801809136
:100EA000C801863960F4E091C801F0E0EC5FFE4FC4
:100EB00010828091C8018F5F8093C801F0CFF092BB
:100EC000CB011092D1018091D101833061F6109253
:100ED000D1018091CC01813459F58091CE0190E00F
:100EE000982F88279093030180930201809102013B
:100EF000909103012091CD01822B90930301809367
:100F0000020184E293E00E94F302ADCF803531F418
:100F10008091B10084608093B100D3CF813599F680
:100F20008091B1008B7F8093B1000E948303C9CF71
:100F3000823439F48091CD01809301018AE193E0FC
:100F4000E2CF833439F48091CD018093000180E1B8
:100F500093E0D9CF843461F56091000190E080E0A6
:100F60000E94AE036091010181E090E00E94AE0317
:100F700080910201909103019093C8016091C80192
:100F800084E090E00E94AE03809102019091030101
:100F90008093C8016091C80185E090E00E94AE0393
:100FA00060E883E090E00E94AE038FEF92E0ABCF69
:100FB000853409F058CF1092C8018091C801863954
:100FC00090F4E091C8018091C801F0E0EC5FFE4F21
:100FD00090E0608106960E94AE038091C8018F5F09
:100FE0008093C801EACF60E882E090E00E94AE03FF
:100FF0008FEE92E088CFE6EDF1E01382128288EE68
:1010000093E0A0E0B0E084839583A683B7838EE964
:1010100091E09183808385EC90E09587848784ECD0
:1010200090E09787868780EC90E0918B808B81ECB5
:1010300090E0938B828B82EC90E0958B848B86EC96
:1010400090E0978B868B118E128E138E148E0895DE
:10105000F999FECF92BD81BDF89A992780B5089580
:10106000262FF999FECF1FBA92BD81BD20BD0FB6C4
:10107000F894FA9AF99A0FBE01960895EE0FFF1FA1
:0C1080000590F491E02D0994F894FFCF46
:10108C00085032005365616C616D61742044417489
:10109C00616E6720446973696E690000000000008E
:1010AC000000000000000000000000000000000034
:1010BC000000000000000000000000000000000024
:1010CC000000000000000000000000000000000014
:1010DC000000000000000000000000000000000004
:1010EC0000000000000000000000000000000000F4
:1010FC0000000000000000000000000000000000E4
:10110C0000000000000000000000000000000000D3
:10111C000000000000000000000000000000A6021B
:10112C000602330217036402420256020D0A000043
:00000001FF
