:020000040000FA
:100000000C944E010C9476010C9476010C947601BC
:100010000C9476010C9476010C9476010C94760184
:100020000C9476010C9476010C9476010C94760174
:100030000C9476010C9476010C9476010C94760164
:100040000C9408020C9476010C9476010C947601C1
:100050000C9476010C9476010C9476010C94760144
:100060000C9476010C947601000000080002010057
:100070000003040700000000000000000000000072
:100080000000005F00000007000700147F147F14C9
:10009000242A7F2A1223130864623649552250000D
:1000A00005030000001C2241000041221C00082A18
:1000B0001C2A0808083E08080050300000080808FC
:1000C0000808006060000020100804023E51494505
:1000D0003E00427F400042615149462141454B313B
:1000E0001814127F1027454545393C4A49493001CB
:1000F000710905033649494936064949291E003622
:100100003600000056360000000814224114141472
:1001100014144122140800020151090632497941A0
:100120003E7E1111117E7F494949363E41414122AF
:100130007F4141221C7F494949417F090901013E14
:10014000414151327F0808087F00417F4100204033
:10015000413F017F081422417F404040407F02041C
:10016000027F7F0408107F3E4141413E7F0909091B
:10017000063E4151215E7F091929464649494931C8
:1001800001017F01013F4040403F1F2040201F7F71
:100190002018207F6314081463030478040361515A
:1001A00049454300007F4141020408102041417F3E
:1001B00000000402010204404040404000010204EB
:1001C0000020545454787F484444383844444420F0
:1001D000384444487F3854545418087E09010208B2
:1001E0001454543C7F0804047800447D40002040AF
:1001F000443D00007F10284400417F40007C0418EB
:1002000004787C0804047838444444387C1414147A
:1002100008081414187C7C0804040848545454201A
:10022000043F4440203C4040207C1C2040201C3C9B
:100230004030403C44281028440C5050503C44640A
:10024000544C44000836410000007F000000413655
:10025000080008082A1C08081C2A080800000000DA
:10026000250028002B0000000000240027002A00A1
:10027000040404040404040402020202020203034C
:100280000303030301020408102040800102040854
:100290001020010204081020C2030B0411241FBE09
:1002A000CFEFD8E0DEBFCDBF21E0AEE1B1E001C0CD
:1002B0001D92A03DB207E1F711E0A0E0B1E0E0EF50
:1002C000FCE002C005900D92AE31B107D9F711E004
:1002D000CDE4D1E004C02197FE010E947304CC3428
:1002E000D107C9F70E9452020C946B060C940000CF
:1002F00090E0FC01EC57FD4F249180599D4FFC018B
:100300008491882399F090E0880F991FFC01EA59A5
:10031000FD4FA591B491FC01E45AFD4F8591949154
:100320008FB7F894EC91E22BEC938FBF089590E097
:10033000FC01E859FF4F2491FC01EC57FD4F34912B
:10034000FC01E059FD4FE491EE23C9F0222339F07E
:10035000233001F1A8F4213019F1223029F1F0E025
:10036000EE0FFF1FE45AFD4FA591B4918FB7F8949B
:10037000EC91611126C030953E233C938FBF0895C8
:100380002730A9F02830C9F0243049F78091800047
:100390008F7D03C0809180008F7780938000DFCFB6
:1003A00084B58F7784BDDBCF84B58F7DFBCF809103
:1003B000B0008F778093B000D2CF8091B0008F7D56
:1003C000F9CF3E2BDACF3FB7F89480911F0190917F
:1003D0002001A0912101B091220126B5A89B05C062
:1003E0002F3F19F00196A11DB11D3FBFBA2FA92FB4
:1003F000982F8827BC01CD01620F711D811D911DB1
:1004000042E0660F771F881F991F4A95D1F708951C
:100410001F920F920FB60F9211242F933F938F9339
:100420009F93AF93BF938091240190912501A09158
:100430002601B091270130911E0123E0230F2D37B3
:1004400058F50196A11DB11D20931E018093240132
:1004500090932501A0932601B093270180911F015D
:1004600090912001A0912101B09122010196A11D3E
:10047000B11D80931F0190932001A0932101B0939F
:100480002201BF91AF919F918F913F912F910F903A
:100490000FBE0F901F90189526E8230F0296A11DFE
:1004A000B11DD2CF789484B5826084BD84B581605B
:1004B00084BD85B5826085BD85B5816085BD80912F
:1004C0006E00816080936E001092810080918100A7
:1004D000826080938100809181008160809381009F
:1004E000809180008160809380008091B100846061
:1004F0008093B1008091B00081608093B0008091C2
:100500007A00846080937A0080917A008260809380
:100510007A0080917A00816080937A0080917A00DD
:10052000806880937A001092C10082E00E94780176
:1005300084E00E94780187E00E94780185E00E94B3
:10054000780183E00E94780186E00E94780126E02D
:10055000222E36E0C32ED12C45E0342E88248394FD
:10056000912C60E0A62E60E0B62E2FB7F894809113
:10057000240190912501A0912601B09127012FBF60
:1005800040913001509131016091320170913301FD
:10059000841B950BA60BB70BCC97A105B10508F4EE
:1005A00075C02FB7F8948091240190912501A091F6
:1005B0002601B09127012FBF809330019093310124
:1005C000A0933201B093330180912E0190912F01BD
:1005D000019690932F0180932E01E0912C01F091D0
:1005E0002D012E9E90012F9E300D112428173907C2
:1005F00020F410922F0110922E0120912E013091A3
:100600002F0121503109C901B6010E944B047727FF
:100610006E177F0738F4C0912801D09129012097E7
:1006200009F09FC010922301C3E2D1E0C901B601D5
:100630000E944B04782F28812052FC01239DE00D5D
:10064000F11D11248F0104581F4FA4E3B1E090E085
:1006500080E0ED01219750E040E06981660F6983F9
:100660002881219627FF02C0616068836C91660F24
:10067000753008F479C06C934F5F5F4F483951056E
:1006800061F7019653968830910519F794E3E92EA6
:1006900091E0F92ED0E0C0E060E083E00E94970195
:1006A00007E910E0F701E00FF11F608088E0782E85
:1006B000662D617082E00E949701669461E084E09B
:1006C0000E94970160E084E00E9497017A94711083
:1006D000EFCF61E083E00E9497010150110910F70C
:1006E00060E086E00E949701C4010C2E01C0880FD3
:1006F0000A94EAF7182F109508E0612F661F662705
:10070000661F87E00E949701110F61E085E00E945B
:10071000970160E085E00E949701015071F761E068
:1007200086E00E9497010E94E3012B013C010E9498
:10073000E3016419750986099709683E73408105CC
:100740009105A8F3219683E1E80EF11CC830D1058C
:1007500009F0A2CFA114B10409F407CF0E94000050
:1007600004CFC60FD71F62CFF801249130E0082EC6
:1007700002C0359527950A94E2F721703327262B7E
:100780002C937ACF109229011092280110922B01FC
:1007900010922A0110922D0110922C0167E170E055
:1007A00090E080E00E949E05009701F1909329015E
:1007B0008093280126E130E030932B0120932A0119
:1007C00020912C0130912D01232B11F4FC0110827A
:1007D00086E190E090932D0180932C0166E071E01A
:1007E00080912801909129010C9464068091280140
:1007F00090912901009711F00E941505109229018E
:100800001092280110922D0110922C0110922B01B0
:1008100010922A0108958091280190912901009752
:1008200011F00C94150508952F923F924F925F920C
:100830006F927F928F929F92AF92BF92CF92DF92F0
:10084000EF92FF920F931F93CF93DF93CDB7DEB755
:10085000CA1BDB0B0FB6F894DEBF0FBECDBF0994E9
:100860002A88398848885F846E847D848C849B8440
:10087000AA84B984C884DF80EE80FD800C811B814E
:10088000AA81B981CE0FD11D0FB6F894DEBF0FBE7D
:10089000CDBFED01089597FB072E16F4009407D005
:1008A00077FD09D00E945F0407FC05D03EF49095C7
:1008B00081959F4F0895709561957F4F0895AA1B6C
:1008C000BB1B51E107C0AA1FBB1FA617B70710F03B
:1008D000A61BB70B881F991F5A95A9F7809590956D
:1008E000BC01CD010895EE0FFF1F0590F491E02D9E
:1008F00009940F931F93CF93DF938230910510F4E7
:1009000082E090E0E091CE01F091CF0130E020E074
:10091000B0E0A0E0309799F42115310509F44AC000
:10092000281B390B24303105D8F58A819B8161154C
:10093000710589F1FB0193838283FE0111C040811F
:1009400051810281138148175907E0F04817590770
:1009500099F4109761F012960C93129713961C93CA
:100960003296CF01DF91CF911F910F91089500939F
:10097000CE011093CF01F4CF2115310551F042176C
:10098000530738F0A901DB019A01BD01DF01F8012D
:10099000C1CFEF01F9CF9093CF018093CE01CDCF9E
:1009A000FE01E20FF31F81939193225031093983A5
:1009B0002883D7CF2091CC013091CD01232B41F456
:1009C00020910201309103013093CD012093CC019D
:1009D00020910001309101012115310541F42DB71D
:1009E0003EB74091040150910501241B350BE09165
:1009F000CC01F091CD01E217F307A0F42E1B3F0BC1
:100A00002817390778F0AC014E5F5F4F2417350780
:100A100048F04E0F5F1F5093CD014093CC0181935E
:100A200091939FCFF0E0E0E09CCFCF93DF930097CE
:100A3000E9F0FC01329713821282A091CE01B091AD
:100A4000CF01ED0130E020E01097A1F42081318149
:100A5000820F931F2091CC013091CD0128173907C7
:100A600009F061C0F093CD01E093CC01DF91CF910B
:100A70000895EA01CE17DF07E8F54A815B819E0100
:100A800041155105B1F7E901FB83EA834991599179
:100A9000C40FD51FEC17FD0761F480819181029688
:100AA000840F951FE90199838883828193819B83B9
:100AB0008A83F0E0E0E012968D919C911397009765
:100AC000B9F52D913C911197CD010296820F931F9C
:100AD0002091CC013091CD012817390739F6309794
:100AE00051F51092CF011092CE01B093CD01A09399
:100AF000CC01BCCFD383C28340815181840F951F29
:100B0000C817D90761F44E5F5F4F88819981480FFC
:100B1000591F518340838A819B819383828321154E
:100B2000310509F0B0CFF093CF01E093CE019ECF15
:100B3000FD01DC01C0CF13821282D7CFB0E0A0E06C
:100B4000E4EAF5E00C9416048C01009751F4CB0113
:100B50000E9479048C01C801CDB7DEB7E0E10C94A6
:100B60003204FC01E60FF71F9C0122503109E21705
:100B7000F30708F49DC0D901CD91DC911197C617F8
:100B8000D70798F0C530D10530F3CE01049786170A
:100B9000970708F3C61BD70B2297C193D1936D9388
:100BA0007C93CF010E941505D6CF5B01AC1ABD0A1C
:100BB0004C018C0E9D1EA091CE01B091CF01512C05
:100BC000412CF12CE12C109731F58091CC019091C2
:100BD000CD018815990509F05CC04616570608F046
:100BE00058C08091000190910101009741F48DB7A8
:100BF0009EB74091040150910501841B950BE817A5
:100C0000F90708F055C0F093CD01E093CC01F9014C
:100C100071836083A0CF8D919C91119712966C90F7
:100C2000129713967C901397A815B90559F56C0186
:100C300042E0C40ED11CCA14DB0420F1AC014A19F5
:100C40005B09DA011296159780F0628273825183F4
:100C50004083D9016D937C93E114F10471F0D701C5
:100C60001396FC93EE93129776CF22968C0F9D1FCE
:100C7000F90191838083F301EFCFF093CF01E093EB
:100C8000CE0169CF4816590608F42C017D01D30125
:100C90009ACFCB010E9479047C01009749F0AE0104
:100CA000B8010E945B06C8010E941505870153CF59
:100CB00010E000E050CFFB01DC0102C001900D927A
:100CC00041505040D8F70895FB01DC0101900D928E
:100CD0000020E1F7089511E0CDE4D1E004C0FE0169
:100CE0000E9473042196CE34D107C9F7F894FFCF40
:100CF0000000D00180004D454E47415041204B45FA
:0E0D00004E41506120202020202020200000A5
:107E0000112484B714BE81FFF0D085E080938100F7
:107E100082E08093C00088E18093C10086E0809377
:107E2000C20080E18093C4008EE0C9D0259A86E02C
:107E300020E33CEF91E0309385002093840096BBD3
:107E4000B09BFECF1D9AA8958150A9F7CC24DD24C4
:107E500088248394B5E0AB2EA1E19A2EF3E0BF2EE7
:107E6000A2D0813461F49FD0082FAFD0023811F036
:107E7000013811F484E001C083E08DD089C08234E0
:107E800011F484E103C0853419F485E0A6D080C0E4
:107E9000853579F488D0E82EFF2485D0082F10E0AE
:107EA000102F00270E291F29000F111F8ED06801E7
:107EB0006FC0863521F484E090D080E0DECF843638
:107EC00009F040C070D06FD0082F6DD080E0C81688
:107ED00080E7D80618F4F601B7BEE895C0E0D1E017
:107EE00062D089930C17E1F7F0E0CF16F0E7DF06D8
:107EF00018F0F601B7BEE89568D007B600FCFDCFD4
:107F0000A601A0E0B1E02C9130E011968C91119780
:107F100090E0982F8827822B932B1296FA010C0160
:107F200087BEE89511244E5F5F4FF1E0A038BF0790
:107F300051F7F601A7BEE89507B600FCFDCF97BE46
:107F4000E89526C08437B1F42ED02DD0F82E2BD052
:107F50003CD0F601EF2C8F010F5F1F4F84911BD097
:107F6000EA94F801C1F70894C11CD11CFA94CF0C13
:107F7000D11C0EC0853739F428D08EE10CD085E9AC
:107F80000AD08FE07ACF813511F488E018D01DD067
:107F900080E101D065CF982F8091C00085FFFCCF94
:107FA0009093C60008958091C00087FFFCCF809118
:107FB000C00084FD01C0A8958091C6000895E0E648
:107FC000F0E098E1908380830895EDDF803219F02E
:107FD00088E0F5DFFFCF84E1DECF1F93182FE3DFCA
:107FE0001150E9F7F2DF1F91089580E0E8DFEE27F6
:047FF000FF270994CA
:027FFE00040479
:00000001FF
